{
  "contractName": "Vote",
  "abi": [
    {
      "constant": true,
      "inputs": [
        {
          "name": "",
          "type": "uint256"
        }
      ],
      "name": "candidates",
      "outputs": [
        {
          "name": "id",
          "type": "int256"
        },
        {
          "name": "voteCount",
          "type": "int256"
        }
      ],
      "payable": false,
      "stateMutability": "view",
      "type": "function"
    },
    {
      "constant": true,
      "inputs": [
        {
          "name": "",
          "type": "int256"
        }
      ],
      "name": "ballot",
      "outputs": [
        {
          "name": "",
          "type": "address"
        }
      ],
      "payable": false,
      "stateMutability": "view",
      "type": "function"
    },
    {
      "constant": true,
      "inputs": [
        {
          "name": "",
          "type": "uint256"
        }
      ],
      "name": "voters",
      "outputs": [
        {
          "name": "dni",
          "type": "int256"
        },
        {
          "name": "candidateId",
          "type": "int256"
        },
        {
          "name": "voted",
          "type": "bool"
        }
      ],
      "payable": false,
      "stateMutability": "view",
      "type": "function"
    },
    {
      "inputs": [
        {
          "name": "candidateIds",
          "type": "int256[]"
        },
        {
          "name": "personDocs",
          "type": "int256[]"
        }
      ],
      "payable": false,
      "stateMutability": "nonpayable",
      "type": "constructor"
    },
    {
      "constant": true,
      "inputs": [],
      "name": "getTotalVotes",
      "outputs": [
        {
          "name": "voteTotal",
          "type": "int256"
        }
      ],
      "payable": false,
      "stateMutability": "view",
      "type": "function"
    },
    {
      "constant": true,
      "inputs": [
        {
          "name": "candidateId",
          "type": "int256"
        }
      ],
      "name": "getCandidateVotes",
      "outputs": [
        {
          "name": "voteCount",
          "type": "int256"
        }
      ],
      "payable": false,
      "stateMutability": "view",
      "type": "function"
    },
    {
      "constant": true,
      "inputs": [],
      "name": "getCandidateWinner",
      "outputs": [
        {
          "name": "candidateId",
          "type": "int256"
        },
        {
          "name": "votes",
          "type": "int256"
        }
      ],
      "payable": false,
      "stateMutability": "view",
      "type": "function"
    },
    {
      "constant": true,
      "inputs": [
        {
          "name": "dni",
          "type": "int256"
        }
      ],
      "name": "getIfPersonVoted",
      "outputs": [
        {
          "name": "voted",
          "type": "bool"
        }
      ],
      "payable": false,
      "stateMutability": "view",
      "type": "function"
    },
    {
      "constant": true,
      "inputs": [
        {
          "name": "personDni",
          "type": "int256"
        }
      ],
      "name": "existPerson",
      "outputs": [
        {
          "name": "",
          "type": "bool"
        }
      ],
      "payable": false,
      "stateMutability": "view",
      "type": "function"
    },
    {
      "constant": true,
      "inputs": [
        {
          "name": "candidateId",
          "type": "int256"
        }
      ],
      "name": "existCandidate",
      "outputs": [
        {
          "name": "",
          "type": "bool"
        }
      ],
      "payable": false,
      "stateMutability": "view",
      "type": "function"
    },
    {
      "constant": false,
      "inputs": [
        {
          "name": "personDni",
          "type": "int256"
        },
        {
          "name": "candidateId",
          "type": "int256"
        }
      ],
      "name": "registerVote",
      "outputs": [],
      "payable": false,
      "stateMutability": "nonpayable",
      "type": "function"
    }
  ],
  "bytecode": "0x6060604052341561000f57600080fd5b604051610b60380380610b60833981016040528080518201919060200180518201919050506000336000806101000a81548173ffffffffffffffffffffffffffffffffffffffff021916908373ffffffffffffffffffffffffffffffffffffffff160217905550600090505b82518110156100fe576002805480600101828161009891906101b8565b91600052602060002090600202016000604080519081016040528087868151811015156100c157fe5b906020019060200201518152602001600081525090919091506000820151816000015560208201518160010155505050808060010191505061007b565b600090505b81518110156101b0576003805480600101828161012091906101ea565b91600052602060002090600302016000606060405190810160405280868681518110151561014a57fe5b90602001906020020151815260200160008152602001600015158152509091909150600082015181600001556020820151816001015560408201518160020160006101000a81548160ff0219169083151502179055505050508080600101915050610103565b50505061028e565b8154818355818115116101e5576002028160020283600052602060002091820191016101e4919061021c565b5b505050565b81548183558181151161021757600302816003028360005260206000209182019101610216919061024b565b5b505050565b61024891905b8082111561024457600080820160009055600182016000905550600201610222565b5090565b90565b61028b91905b808211156102875760008082016000905560018201600090556002820160006101000a81549060ff021916905550600301610251565b5090565b90565b6108c38061029d6000396000f3006060604052600436106100a4576000357c0100000000000000000000000000000000000000000000000000000000900463ffffffff1680631be7f892146100a95780633477ee2e146100d95780634126b1ce14610117578063501b56601461015257806356c466ac146101b557806364205be4146101e15780637453fdfa1461021c5780639a0e7d6614610253578063da58c7d91461027c578063e83b074c146102c5575b600080fd5b34156100b457600080fd5b6100bc610300565b604051808381526020018281526020019250505060405180910390f35b34156100e457600080fd5b6100fa600480803590602001909190505061039f565b604051808381526020018281526020019250505060405180910390f35b341561012257600080fd5b61013860048080359060200190919050506103d2565b604051808215151515815260200191505060405180910390f35b341561015d57600080fd5b610173600480803590602001909190505061045b565b604051808273ffffffffffffffffffffffffffffffffffffffff1673ffffffffffffffffffffffffffffffffffffffff16815260200191505060405180910390f35b34156101c057600080fd5b6101df600480803590602001909190803590602001909190505061048e565b005b34156101ec57600080fd5b61020260048080359060200190919050506106c6565b604051808215151515815260200191505060405180910390f35b341561022757600080fd5b61023d6004808035906020019091905050610728565b6040518082815260200191505060405180910390f35b341561025e57600080fd5b6102666107a0565b6040518082815260200191505060405180910390f35b341561028757600080fd5b61029d60048080359060200190919050506107ef565b6040518084815260200183815260200182151515158152602001935050505060405180910390f35b34156102d057600080fd5b6102e66004808035906020019091905050610835565b604051808215151515815260200191505060405180910390f35b600080600080925060009150600090505b60028054905081101561039a578160028281548110151561032e57fe5b906000526020600020906002020160010154131561038d5760028181548110151561035557fe5b906000526020600020906002020160000154925060028181548110151561037857fe5b90600052602060002090600202016001015491505b8080600101915050610311565b509091565b6002818154811015156103ae57fe5b90600052602060002090600202016000915090508060000154908060010154905082565b60008060009150600090505b60038054905081101561045557826003828154811015156103fb57fe5b90600052602060002090600302016000015414156104485760038181548110151561042257fe5b906000526020600020906003020160020160009054906101000a900460ff169150610455565b80806001019150506103de565b50919050565b60016020528060005260406000206000915054906101000a900473ffffffffffffffffffffffffffffffffffffffff1681565b60008260003373ffffffffffffffffffffffffffffffffffffffff166000809054906101000a900473ffffffffffffffffffffffffffffffffffffffff1673ffffffffffffffffffffffffffffffffffffffff161415156104ee57600080fd5b600090505b600380549050811015610570578160038281548110151561051057fe5b90600052602060002090600302016000015414156105635760038181548110151561053757fe5b906000526020600020906003020160020160009054906101000a900460ff1615151561056257600080fd5b5b80806001019150506104f3565b61057985610835565b801561058a5750610589846106c6565b5b156106b157600092505b60028054905083101561060657836002848154811015156105b157fe5b90600052602060002090600202016000015414156105f95760016002848154811015156105da57fe5b9060005260206000209060020201600101600082825401925050819055505b8280600101935050610594565b600092505b6003805490508310156106ac578460038481548110151561062857fe5b906000526020600020906003020160000154141561069f578360038481548110151561065057fe5b906000526020600020906003020160010181905550600160038481548110151561067657fe5b906000526020600020906003020160020160006101000a81548160ff0219169083151502179055505b828060010193505061060b565b6106bf565b600015156106be57600080fd5b5b5050505050565b6000806000809150600090505b60028054905081101561071e57836002828154811015156106f057fe5b9060005260206000209060020201600001541415610711576001915061071e565b80806001019150506106d3565b8192505050919050565b60008060009150600090505b60028054905081101561079a578260028281548110151561075157fe5b906000526020600020906002020160000154141561078d5760028181548110151561077857fe5b90600052602060002090600202016001015491505b8080600101915050610734565b50919050565b60008060009150600090505b6002805490508110156107eb576002818154811015156107c857fe5b9060005260206000209060020201600101548201915080806001019150506107ac565b5090565b6003818154811015156107fe57fe5b90600052602060002090600302016000915090508060000154908060010154908060020160009054906101000a900460ff16905083565b6000806000809150600090505b60038054905081101561088d578360038281548110151561085f57fe5b9060005260206000209060030201600001541415610880576001915061088d565b8080600101915050610842565b81925050509190505600a165627a7a7230582048c8f58c7a08b88ae8ff5c0a04dd65fa5917be120c948ddf9082c2ad64dd8ef00029",
  "source": "pragma solidity ^0.4.17;\r\n\r\ncontract Vote {\r\n\r\n    address owner;\r\n    mapping (int => address) public ballot;  \r\n    Candidate[] public candidates;\r\n    Voter[] public voters;\r\n\r\n    struct Voter\r\n    {\r\n        int dni;\r\n        int candidateId;\r\n        bool voted;\r\n    }\r\n\r\n    struct Candidate\r\n    {\r\n        int id;        \r\n        int voteCount;        \r\n    }\r\n\r\n    function Vote(int[] candidateIds, int[] personDocs) public {\r\n        owner = msg.sender;\r\n\r\n        for (uint i = 0; i < candidateIds.length; i++) {           \r\n            candidates.push(Candidate({\r\n                id: candidateIds[i],\r\n                voteCount: 0\r\n            }));\r\n        }\r\n\r\n        for (i = 0; i < personDocs.length; i++) {           \r\n            voters.push(Voter({\r\n                dni: personDocs[i],\r\n                candidateId: 0,\r\n                voted: false\r\n            }));\r\n        }\r\n    }\r\n\r\n    modifier restricted() {\r\n        require(owner == msg.sender);\r\n        _;\r\n    }\r\n\r\n    modifier alreadyVote(int personDni) {        \r\n        require(owner == msg.sender);\r\n        \r\n        for(uint i = 0; i < voters.length; i++) {\r\n            if(voters[i].dni == personDni) {                \r\n                require(!voters[i].voted);\r\n            }\r\n        }        \r\n        _;\r\n    }\r\n\r\n    function getTotalVotes() public constant returns (int voteTotal) {\r\n        voteTotal = 0;\r\n        \r\n        for(uint i = 0; i < candidates.length; i++) {\r\n            voteTotal += candidates[i].voteCount;            \r\n        }\r\n    }\r\n\r\n    function getCandidateVotes(int candidateId) public constant returns (int voteCount) {\r\n        voteCount = 0;\r\n        \r\n        for(uint i = 0; i < candidates.length; i++) {\r\n            if(candidates[i].id == candidateId) {\r\n                voteCount = candidates[i].voteCount;\r\n            }        \r\n        }\r\n    }\r\n\r\n    function getCandidateWinner() public constant returns (int candidateId, int votes) {\r\n        candidateId = 0;\r\n        votes = 0;\r\n\r\n        for(uint i = 0; i < candidates.length; i++) {\r\n            if(candidates[i].voteCount > votes) {\r\n                candidateId = candidates[i].id;\r\n                votes = candidates[i].voteCount;\r\n            }\r\n        }\r\n    }\r\n\r\n    function getIfPersonVoted(int dni) public constant returns (bool voted) {\r\n        voted = false;\r\n\r\n        for(uint i = 0; i < voters.length; i++) {\r\n            if(voters[i].dni == dni) {\r\n                voted = voters[i].voted;\r\n                break;                \r\n            }\r\n        }\r\n    }\r\n\r\n    function existPerson(int personDni) public constant returns (bool) {\r\n        bool exist = false;\r\n\r\n        for(uint i = 0; i < voters.length; i++) {\r\n            if(voters[i].dni == personDni) {\r\n                exist = true;\r\n                break;\r\n            }        \r\n        }\r\n\r\n        return exist;        \r\n    }\r\n\r\n    function existCandidate(int candidateId) public constant returns (bool) {\r\n        bool exist = false;\r\n\r\n        for(uint i = 0; i < candidates.length; i++) {\r\n            if(candidates[i].id == candidateId) {\r\n                exist = true;\r\n                break;\r\n            }        \r\n        }\r\n\r\n        return exist;        \r\n    }\r\n\r\n    function registerVote(int personDni, int candidateId) public alreadyVote(personDni) {\r\n\r\n        if(existPerson(personDni) && existCandidate(candidateId)) {\r\n            for(uint i = 0; i < candidates.length; i++) {\r\n                if(candidates[i].id == candidateId) {\r\n                    candidates[i].voteCount += 1;                \r\n                }        \r\n            }\r\n\r\n            for(i = 0; i < voters.length; i++) {\r\n                if(voters[i].dni == personDni) {\r\n                    voters[i].candidateId = candidateId;\r\n                    voters[i].voted = true;                \r\n                }        \r\n            }\r\n        }\r\n        else {\r\n            require(false);\r\n        }        \r\n    }\r\n}",
  "sourcePath": "C:\\GR\\SVN\\Blockchain\\BC_Vote\\SC_Vote\\contracts\\Vote.sol",
  "compiler": {
    "name": "solc",
    "version": "0.4.19+commit.c4cbbb05.Emscripten.clang"
  },
  "schemaVersion": "2.0.0",
  "updatedAt": "2018-04-04T20:32:07.735Z"
}